:020000021000EC
:10C0000000000120891D02006DCD010069CD0100F5
:10C0100071CD010085CD010099CD01000000000027
:10C02000000000000000000000000000C31D02002E
:10C030000000000000000000C51D0200C71D020036
:10C0400069CF0100C91D02001DCF01002DCF0100E5
:10C050003DCF0100C91D0200C91D020079CF0100BA
:10C0600089CF010099CF0100A9CF0100C91D0200AD
:10C07000C91D0200C91D0200C91D0200C91D020020
:10C08000C91D0200C91D0200C91D0200C91D020010
:10C09000C91D0200C91D0200C91D0200C91D020000
:10C0A000C91D0200C91D0200B9CF0100C9CF01009E
:10C0B000C91D0200C91D02000000000000000000B0
:10C0C000C91D0200C91D0200C91D020059CF01008F
:10C0D000C91D0200C91D0200000000000000000090
:10C0E0000000000000000000000000000000000050
:10C0F0000000000000000000000000000000000040
:10C10000000000000000000000000000000000002F
:10C11000000000000000000000000000000000001F
:10C4000010B5054C237833B9044B13B10448AFF38E
:10C4100000800123237010BD243F00200000000095
:10C42000C0200200084B10B51BB108480849AFF303
:10C4300000800848036803B910BD074B002BFBD0F0
:10C44000BDE81040184700BF00000000C0200200F7
:10C45000283F0020243F002000000000154B002B47
:10C4600008BF134B9D46A3F5803A00218B460F462B
:10C470001348144A121A00F065F80F4B002B00D035
:10C4800098470E4B002B00D0984700200021040055
:10C490000D000D48002802D00C48AFF3008000F0DA
:10C4A0002BF82000290000F00DF900F011F800BF72
:10C4B0000000080000000120000000000000000053
:10C4C000243F002000480020000000000000000081
:10C4D00008B5074B044613B10021AFF30080054BAC
:10C4E0001868836A03B19847204600F033F800BF0C
:10C4F00000000000A01F020070B50E4B0E4CE41AA5
:10C50000A41000251E46A54204D056F825309847B1
:10C510000135F8E705F036FD084C094BE41AA41084
:10C5200000251E46A54204D056F82530984701350F
:10C53000F8E770BD1C3F00201C3F0020203F00207A
:10C540001C3F002002440346934202D003F8011B23
:10C55000FAE77047FEE700BF0122014B1A607047FF
:10C5600000050040F8B506460F461446074A126813
:10C57000156800209DF818101A46A8471CB16422BF
:10C58000034B1A60F8BDC6F8207CF8BD4C4700206C
:10C5900004030040042902D10023C0F820342029DC
:10C5A00002D10023C0F85034402902D10023C0F842
:10C5B00060347047042902D1D0F820047047202944
:10C5C00002D1D0F850047047402902D1D0F860045D
:10C5D00070477047014B1960704700BF403F002013
:10C5E00008B54FF080400421FFF7E4FF40B1144B41
:10C5F0001B68042098474FF080400421FFF7CAFFD2
:10C600004FF080402021FFF7D5FF40B10C4B1B6855
:10C61000202098474FF080402021FFF7BBFF4FF0CC
:10C6200080404021FFF7C6FF40B1054B1B6840200A
:10C6300098474FF080404021FFF7ACFF08BD00BF96
:10C64000403F002082B0064B1B680193054B1B68DE
:10C650000093019B0360009B0B6002B0704700BF1A
:10C66000600000106400001008B5002002494FF07F
:10C67000FF3205F079FB08BDA41F020008B5094B85
:10C680004360094BC360094B8360094B4361094B0D
:10C690000361094B0360094B19600B6900200849CD
:10C6A000984708BD59C5010095C5010065C5010041
:10C6B000D5C50100B5C5010045C601004C470020A5
:10C6C000E1C501002DE980488FB00024B04B1C600B
:10C6D000B04B01221A60B04B1C60B04B1C6020466E
:10C6E000AF4905F041FBAF4804F038FBAE4800F01D
:10C6F00073FCAE4B0093AE4B0193AE4B0293AE4B2B
:10C700000393AE482021AE4AAE4B03F011FCAE4B72
:10C710000093602301930823029303940494142349
:10C720000593069307944FF0A043089306230993BB
:10C7300008230A9301230B9302230C93A3489A49DD
:10C74000A34A4FF47A5302F03FF800940194029404
:10C750004FF0A04303931623049317230593182344
:10C760000693192307939B488F494FF040224FF0BF
:10C77000007303F0F5FC0094019402944FF0A04381
:10C7800003930E2304930C2305930D2306930B238D
:10C79000079390488449904A4FF0007303F0E0FCFF
:10C7A0001A2300931B2301938C487F494FF0CC72CE
:10C7B000894B03F025F98A4F0423009338467A49C0
:10C7C000884A032303F03AFBDFF8388204230093FE
:10C7D000384675494246032303F030FBDFF828B2A0
:10C7E00004230093384670495A46032303F026FB7E
:10C7F0000423009338466C497B4A032303F01EFB55
:10C800000423009338466849784A032303F016FB53
:10C8100001230093019302940394049405944FF42C
:10C82000A0230693079403230893099420230A93D3
:10C830006F485D496F4A234600F0ECFDDFF8CC916C
:10C840004846584903F046FED9F80430022048F221
:10C8500005019847684D2860D9F80430022048F255
:10C86000050198476860D9F80430022048F20501B4
:10C870009847A860D9F80430022048F2050198478B
:10C88000E860D9F80430022048F205019847286191
:10C89000DFF87CA1504643493A4600F07FFEDAF8C3
:10C8A000043040469847E862DAF804305846984722
:10C8B000A862DAF804304C4898476863DAF8043024
:10C8C0004A4898472863DAF8043046489847A863EE
:10C8D000DFF840B158464946324A02F001FBDBF826
:10C8E00000309847DFF83081C8F80400DBF80030EA
:10C8F0009847C8F80000414FCDF80090294B0193AC
:10C90000CDF808B03846334952462C4B01F04CF86C
:10C9100017230093182301931923029306204FF045
:10C9200040214FF0A04216237E68B047014668615F
:10C930003F68D8F800300093D8F804300193012004
:10C940002A68AB6AB8472E4FCDF80090154B01937B
:10C95000CDF808B03846194952461E4B04F076F916
:10C960000E2300930C2301930D2302930F230393B3
:10C9700019484FF0A041112203237E68B0470146B9
:10C98000A8613F68D8F800300093D8F8043045E03B
:10C990000C450020BC450020084700208C440020A6
:10C9A000B01F020054460020AC460020543E002038
:10C9B000443F0020F43E0020343E00201047002079
:10C9C000743E0020143E0020005027006C440020DC
:10C9D000002000402C47002000300040A0440020F0
:10C9E000E44600200080004000A0014000B001406B
:10C9F000D04500200070004078450020D44600203B
:10CA0000444600200090004000A0004080440020E8
:10CA1000E4440020304500202445002001930120FB
:10CA20006A68EB6AB84773487349FFF727FE714B92
:10CA30001B68724872499847724FCDF80090724B4C
:10CA40000193CDF808B0384670495246704B04F057
:10CA5000C5FC1B2300931A2301931D230293039407
:10CA6000049405206B494FF0A04208237E68B0472C
:10CA7000014628623F68D8F800300093D8F80430A7
:10CA800001930120EA686B6BB847634FCDF80090C3
:10CA90005D4B0193CDF808B038465C4952465C4B7B
:10CAA00001F096FC1B2300931A2301930294039434
:10CAB000042058494FF0A04264237E68B0470146E5
:10CAC000E8613F68D8F800300093D8F8043001934B
:10CAD0000120AA682B6BB847504F514B00934C4B29
:10CAE0000193494B0293384659464A46534602F051
:10CAF00059F90823009301230193022302932B6920
:10CB00000393AB6B0493D8F800300593D8F8043046
:10CB10000693EF2043494FF0A04206237E68B047BA
:10CB2000014668623B6801209847324B9F680123A9
:10CB300000934FF0804064211A462346B8472D4B9E
:10CB40005B694FF0804038499847314B5B684FF044
:10CB5000A04004210A4698472D4B5B684FF0A04047
:10CB600012210A4698472A4B5B684FF0A0401321D8
:10CB70000A469847264B5B684FF0A04014210A46AE
:10CB80009847234B5B684FF0A04011210A46984715
:10CB90001F4B5B684FF0A04009210A4698471C4B89
:10CBA0005B684FF0A0400A210A469847184B5B6823
:10CBB0004FF0A0400F210A4698471C4F144B00939A
:10CBC0001B4B0193CDF808B038460B49094A4B4638
:10CBD00002F0B0FB2B691749CB60D8F800304B60EE
:10CBE000D8F804308B603B6801209847124B1C60DA
:10CBF00028E000BF90460020AC4600206845002099
:10CC0000144500205C47002054460020A04400202A
:10CC10001047002000300040B84400205444002059
:10CC20006C4400200020004069C6010064450020DB
:10CC3000D0450020DC450020BC450020384A136860
:10CC400001331360364B1B681B2BF7D90122354B80
:10CC50001A60354B1B68354C0020616A9847344B8D
:10CC60001B68002033499847334B1E68334D2B68AF
:10CC700000936B6801930020216AE268636BB04700
:10CC80002F4B1E682B6800936B6801930020E169AD
:10CC9000A268236BB0472B4B1E682B6800936B6810
:10CCA0000193002061692268A36AB047264B1E6881
:10CCB000A1696268E36A28680090686801900020B2
:10CCC000B047224B1B68012B02D1214B1B6823B1BB
:10CCD0001E4B1B680BB91E4B1B681E4B1B681E4B63
:10CCE0001B68012B02D100221B4B1A601B4B1B68D7
:10CCF000012B02D10022194B1A60194B1B68012B22
:10CD000002D10022164B1A60164CA3684FF0A040C7
:10CD10001C219847A3684FF0A0401C21984798E732
:10CD2000BC450020DC46002054440020784500200B
:10CD300064450020DC4500205C470020244500209D
:10CD4000B8440020D4460020444600206447002018
:10CD5000F8440020FC4600203C4700200447002007
:10CD60000445002010470020FEE700BFFEE700BF9B
:10CD700008B5002002494FF4FA7204F0F5FFF8E715
:10CD8000B01F020008B5002002494FF4167204F0EB
:10CD9000EBFFF8E7B01F020008B5002002494FF48E
:10CDA0002F7204F0E1FFF8E7B01F020030B443092E
:10CDB000C5B205F01F040121A1400C4C44F823101A
:10CDC000603344F82310002806DA05F00F055201FD
:10CDD000D2B2074B5A5507E05201D2B200F160407F
:10CDE00000F5614080F8002330BC704700E100E0AE
:10CDF00014ED00E049B1430900F01F000122824018
:10CE00004033074941F823207047430900F01F00D1
:10CE1000012282406033024941F82320704700BF5D
:10CE200000E100E030B4450905F140040D4B53F832
:10CE3000244000F01F00012383401C4000D0012447
:10CE4000003418BF01240C708035064951F82510B4
:10CE50000B4000D00123003318BF0123137030BCF6
:10CE6000704700BF00E100E0704700BF23283CD8B6
:10CE7000DFE800F0263B1215183B3B292C2F323BF4
:10CE80003B3B3B3B3B3B3B3B3B3B3B3B3B3B3538FB
:10CE90003B3B3B3B3B3B3B23144B19607047144BE4
:10CEA0001960704710B50C460020124940F29622D6
:10CEB00004F05AFF104B1C6010BD104B19607047F6
:10CEC0000F4B196070470F4B196070470E4B19607C
:10CED00070470E4B196070470D4B196070470D4B32
:10CEE000196070470C4B196070477047783F0020FD
:10CEF000743F0020B01F02008C3F0020703F0020D4
:10CF0000643F0020683F0020883F00206C3F0020E5
:10CF1000803F00207C3F0020843F002008B5024B6A
:10CF20001B68984708BD00BF783F002008B5024B3A
:10CF30001B68984708BD00BF743F002008B500205B
:10CF40000349752204F010FF024B1B68984708BD87
:10CF5000BC1F02008C3F002008B5024B1B6898479D
:10CF600008BD00BF703F002008B5024B1B68984702
:10CF700008BD00BF643F002008B5024B1B689847FE
:10CF800008BD00BF683F002008B5024B1B689847EA
:10CF900008BD00BF883F002008B5024B1B689847BA
:10CFA00008BD00BF6C3F002008B5024B1B689847C6
:10CFB00008BD00BF803F002008B5024B1B689847A2
:10CFC00008BD00BF7C3F002008B5024B1B68984796
:10CFD00008BD00BF843F0020054B0360054B036183
:10CFE000054B4360054BC360054B8360704700BF32
:10CFF000ADCD01006DCE0100F5CD010069CE01007F
:10D0000025CE0100C0F81025C0F81435704700BFC8
:10D01000C0F8F815704700BFC0F8F015704700BFA2
:10D0200010B41343BDF804101943BDF8084041EA99
:10D03000040303991943049B0B43C0F818355DF8AA
:10D04000044B704701238360704700BF01230360D6
:10D05000704700BFC0F80413704700BF08291ED0F6
:10D0600006D8022913D0042915D001292AD10AE0B3
:10D0700020291CD002D8102915D0704740291AD079
:10D0800080291CD070470023C0F80031704700236E
:10D09000C0F8043170470023C0F8083170470023FE
:10D0A000C0F80C3170470023C0F8103170470023DE
:10D0B000C0F8143170470023C0F8183170470023BE
:10D0C000C0F81C31704700BF08291BD006D80229C0
:10D0D00012D0042913D0012923D10AE0202917D026
:10D0E00002D8102911D01CE0402914D0802915D075
:10D0F00017E0D0F800017047D0F804017047D0F86D
:10D1000008017047D0F80C017047D0F81001704743
:10D11000D0F814017047D0F818017047D0F81C01FE
:10D120007047704770B505460C46064A1268166887
:10D1300007209DF810101A46B04728462146FFF7F1
:10D1400089FF70BDD445002008B5FFF787FF08BDF3
:10D1500008B5FFF7B9FF08BD08B500202E49024603
:10D1600004F002FE2D480221FFF7F2FF60B100201B
:10D170002949012204F0F8FD28480221FFF7E4FFC5
:10D180000122274B1A7008BD24480421FFF7E0FF55
:10D1900060B100202049022204F0E6FD1F4804216E
:10D1A000FFF7D2FF01221F4B1A7008BD1B48082150
:10D1B000FFF7CEFF60B100201749032204F0D4FD31
:10D1C00016480821FFF7C0FF0122164B1A7008BD50
:10D1D00012480121FFF7BCFF60B100200E49042274
:10D1E00004F0C2FD0D480121FFF7AEFF01220E4BF6
:10D1F0001A7008BD09482021FFF7AAFF58B1002086
:10D200000549052204F0B0FD04482021FFF79CFFEA
:10D210000122064B1A7008BDCC1F020000700040AE
:10D22000C13F0020C03F0020903F0020B43F0020BD
:10D2300001234360704700BF70B582B00C461646AC
:10D24000F0B1002300934C4A13704C4A13704C4ABF
:10D2500013704C4A53544C4D28460421FFF7FEFEF0
:10D2600028462021FFF7FAFE28460121FFF7F6FEA7
:10D2700028460821FFF7F2FE2846FFF7E3FE03E009
:10D2800013B964223F4B5A543E4B1B5D142B1CD0E8
:10D2900003D83BB10A2B10D063E01E2B2ED0642B99
:10D2A00050D05EE0344B1B78012B5BD10020324B19
:10D2B00018700A22334B1A555BE03348FFF7C6FE5D
:10D2C0001422304B1A55002053E02C4B1B78012BB5
:10D2D0004AD10023294A1370009302E0009B0133D6
:10D2E0000093009BB3F57A7FF8D32748FFF7A0FFA0
:10D2F0001E22244B1A55002000903AE0204B1B7848
:10D30000012B33D100231E4A1370019312E0019BBD
:10D310001E4AD35C012B0AD1019A1D4B1B68198848
:10D320001C4B23F81210019B01211B4AD154019B75
:10D3300001330193019B072BE9D96422114B1A5544
:10D34000002016E0144B1B5D012B11D10023124A63
:10D350001355104A32F8142032600A4A135501203E
:10D3600007E006E0002004E0002002E0002000E0EA
:10D37000002002B070BD00BFB43F0020903F0020ED
:10D38000C03F0020A43F002000700040B83F0020B4
:10D3900040460020943F0020AC3F00200123C0F80D
:10D3A00000357047F0B585B004460D4617461E4659
:10D3B000FFF7F4FFBDF830300093BDF8343001932F
:10D3C0000E9B02930F9B0393204629469DF828202D
:10D3D0009DF82C30FFF724FE204629463A46334676
:10D3E000FFF710FE2046BDF84410FFF711FE20465F
:10D3F0009DF84010FFF710FE0122024B5A5505B070
:10D40000F0BD00BFB83F0020C0F82C16C0F8302691
:10D41000704700BF2DE9F04188B080460D461446A4
:10D420001E46189F204B1B6823B9780004F0CEFCE1
:10D430001D4B18609DF8403000939DF844300193D7
:10D44000BDF848300293BDF84C300393149B04930D
:10D45000159B05939DF858300693BDF85C300793F3
:10D46000204631469DF838209DF83C30FFF79AFF62
:10D4700020460D4B19687A08FFF7C6FF01240B4BB5
:10D480009C550B4BC8F800300A4B1D602B690720D8
:10D490000949984700940948272122460023FFF7AD
:10D4A00041FE08B0BDE8F08140460020B83F0020B2
:10D4B00039D20100D445002059D10100007000404C
:10D4C00010B582B0054B1B68DC68012200924FF456
:10D4D0007C110023A04702B010BD00BF50460020C1
:10D4E000F0B583B005460F4616461E4A1268D2684C
:10D4F0001D48D9B290470190019B002B2BD0019C75
:10D500000DB10023636063680A2B16D0142B24D05E
:10D5100003BB164D2B685B68206898472B689B6897
:10D52000206898472B681D68012021683A463346D9
:10D53000A8470A236360002310E00C4B1B681D689A
:10D54000002021683A463346A847034630B11422EA
:10D55000626003E003E0002300E00123184603B00B
:10D56000F0BD00BF70470020384400205046002026
:10D5700010B584B00446FFF7A3FF082004F026FC92
:10D5800002900460034B1B681B68034801A998477D
:10D5900004B010BD7047002038440020044B0360E5
:10D5A000044B4360044B1960044B1A60704700BF82
:10D5B000E1D4010071D501007047002050460020E1
:10D5C00030B583B004460F4D2B685B6880682178C6
:10D5D000002298472B685B68A06861780022984712
:10D5E0002B685B68E278A06811469847064B1B6879
:10D5F0005D6860680122009204210023A84703B0FF
:10D6000030BD00BF88440020584700202DE9F0417C
:10D6100082B0054617461E46A54B1B68DB68A54829
:10D62000C9B29847044625B1FFF7CAFF0023E3605B
:10D63000A374E3683C2B00F0A98009D8052B36D0F1
:10D6400001D8ABB17EE10A2B48D0142B5BD079E135
:10D650006E2B00F0ED8003D8642B00F0C58071E1E3
:10D66000C82B00F03381B3F57A7F00F04C8169E17B
:10D67000914B1B685D68002300930193089804F1A7
:10D68000100104F1110204F11203A847052800F06B
:10D690005981227C94F846309A4240F05381002010
:10D6A0008649024604F060FB0523E3604AE1844BAF
:10D6B0001B685B68A068E1780022984700207F49DA
:10D6C000052204F051FB7F4B1B681D6801200146B9
:10D6D00007223346A8470A23E36033E1794B1B68EE
:10D6E0001D680020012107223346A847002800F0CA
:10D6F0002981002071490A2204F036FB1423E360DB
:10D700000023E3741EE16C4B1B68D3F804C004F1E2
:10D71000100804F1110704F11205E37C5A1CE274AD
:10D72000009300230193089841463A462B46E04770
:10D73000022814D1604B1B685E680123009301939B
:10D74000089841463A462B46B0470323E37400202D
:10D750005A49152204F008FB6423E360F2E000203C
:10D760005649142204F000FB574B1B681B6801202C
:10D7700061682A469847534B1B681D680120014683
:10D7800002463346A8473C23E360DBE04E4B1B6870
:10D790001B6804F11205002061682A46984738B1D9
:10D7A000002046493C2204F0DFFA1423E360C9E07C
:10D7B000444B1B681F68002001210A463346B847C6
:10D7C000002800F0BF803C4B1B685E68012300937B
:10D7D0000193089804F1100104F111022B46B0479F
:10D7E0004FF47A73E360ADE0E37CCBB100203349C2
:10D7F000642204F0B9FA0023A374334B1B681B683E
:10D800000120616804F1120298472E4B1B681D68C5
:10D810000120014602463346A8476E23E36091E0AB
:10D8200000202649652204F09FFAC823E36089E0BE
:10D83000254B1B681B6804F11205002061682A460D
:10D840009847A0B11D4D002029466E2204F08CFAA5
:10D85000E37C5A1EE274C3F10303A27C23441A75CD
:10D860000020294604F080FA6423E3606AE0154B47
:10D870001B681F680120014602463346B84700284E
:10D8800060D000200D496F2204F06EFA0A4B1B682D
:10D890005E68012300930193089804F1100104F1DC
:10D8A00011022B46B0474FF47A73E3604AE000BFA1
:10D8B00068470020C0440020D4440020D81F020044
:10D8C00088440020CC440020584700201F4B1B6890
:10D8D0009D68227C03230093002301930998394615
:10D8E00004F11403A84700282CD11949C82204F0D8
:10D8F0003BFA184B1B685B68E278A06811469847B2
:10D900000023E3601EE02346FF2203F8142F0F4A92
:10D9100012689568227C01210091002101910998EB
:10D920003946A84770B90B4B1B685B68E278A06862
:10D9300011469847002006494FF47A7204F014FA11
:10D940000023E36002B0BDE8F08100BFD4440020B2
:10D95000D81F020088440020F0B585B007460D4668
:10D9600016461C46482004F031FA029080F84670B2
:10D9700086604560029B1C709DF82C20029B9A706B
:10D980009DF82820029B5A709DF83020029BDA7087
:10D99000034B1B681B68034801A9984705B0F0BDFD
:10D9A00068470020C044002010B40B4C04600B4CAE
:10D9B00044600B48019C04600A4802600A4A1360F4
:10D9C0000A4B19600A4B029A1A600A4B039A1A60B2
:10D9D0005DF8044B704700BF0DD6010059D9010016
:10D9E00020470020CC4400208844002058470020D5
:10D9F00068470020D4440020F0B585B006460C46A8
:10DA000015461F464C2004F0E1F90290C76080F8EB
:10DA10004A600560029B5C60029B9DF828201A7298
:10DA20009DF82C205A729DF83420DA729DF830202F
:10DA30009A72044B1B681B68034801A9984705B0FC
:10DA4000F0BD00BF2447002080460020F0B583B021
:10DA5000384D2B681E680024009401944FF0A040BC
:10DA60001A2106220323B0472B681E6800940194F4
:10DA70004FF0A0401B2106220323B0472B685B68B0
:10DA80004FF0A0401A210A4698472B685B684FF078
:10DA9000A0401B210A4698472B681F680126009664
:10DAA00001944FF0A0401A2106220323B8472B68A7
:10DAB0001D68009601944FF0A0401B21062203230D
:10DAC000A84732E01B4B1B685B684FF0A0401B214E
:10DAD00000229847002300E00133B3F57A7FFBD39F
:10DAE000144B1B685B684FF0A0401B210A46984707
:10DAF000002300E00133B3F57A7FFBD30D4B1B68A5
:10DB00005B684FF0A0401A2100229847002300E0F4
:10DB10000133B3F57A7FFBD3064B1B685B684FF08C
:10DB2000A0401A210A4698470134092CCAD903B0EB
:10DB3000F0BD00BFF4440020F0B583B00446FFF709
:10DB400085FF144E33681F68617AE37A00250095DB
:10DB5000019520680622B84733681E68217AA37AA7
:10DB60000095019520680622B0470B4E33681F6967
:10DB700060684FF0CC711B221A23B84733689E6847
:10DB800060680122009244F286212B46B04703B020
:10DB9000F0BD00BFF4440020484700202DE9F041CB
:10DBA00084B0074616461D46B14B1B68DB68B1487A
:10DBB000C9B298470390039B002B00F0FD83039CA0
:10DBC0002FB12046FFF7B8FF0023A3752361236917
:10DBD000C82B00F092822BD8642B00F07A8112D8E7
:10DBE0000B2B00F0928004D8002B55D00A2B6DD05F
:10DBF000E2E31E2B00F0DA80282B00F00E81142BBC
:10DC000040F0DA83B8E0822B00F0BA8106D86E2BA0
:10DC100000F07081782B00F0B081CDE3962B00F0FE
:10DC2000E481A02B00F021828C2B40F0C583C2E15F
:10DC3000F02B00F08A8314D8E12B00F0BB8206D8C9
:10DC4000DC2B00F07D82DD2B00F09682B4E3E42B28
:10DC500000F06083E62B00F07083E22B40F0AC8391
:10DC60004BE340F6CB02934200F0CC8207D8FA2B6C
:10DC700000F07B83B3F57A7F00F088839CE340F665
:10DC8000CD02934200F0FC82C0F0DB8240F6CE026F
:10DC9000934200F014838FE3774B1B685D68002389
:10DCA000009301930A9804F1140104F1150204F1A0
:10DCB0001603A847052800F07F83227D94F84A3098
:10DCC0009A4240F079830A23236175E300206B496F
:10DCD0000A2204F049F86A4E33681F680020616820
:10DCE00002460346B84733681E6801206168002277
:10DCF0001346B047634B1B681E680120014607228C
:10DD00002B46B0470B23236156E35D4B1B681E680F
:10DD100002206168227B0023B04702280AD1594BB8
:10DD20001B681E680120014604222B46B0471423BD
:10DD3000236141E3534B1B681E6800200121072229
:10DD40002B46B047002800F037834B4B1B685D68BB
:10DD50000123009301930A9804F1140104F11502C0
:10DD600004F11603A8474FF47A7323610020434956
:10DD70006F2203F0F9FF1FE3424B1B681E6800206F
:10DD8000012104222B46B047002800F0158300250E
:10DD9000A5753B4B1B681E6828466168227B04F111
:10DDA0001603B047E5751E23236105E3324B1B685C
:10DDB000D3F804C004F1140804F1150704F11606A1
:10DDC000E37D5A1CE2750093002301930A984146B3
:10DDD0003A463346E04702280FD10723E375264B26
:10DDE0001B685D680123009301930A9841463A46F7
:10DDF0003346A84764232361DEE200202249E27D06
:10DE000003F0B2FF1F4B1B681E680120014602464B
:10DE10002B46B04728232361CEE2194B1B681F68AD
:10DE200004F1160602206168227B3346B84730B9F8
:10DE30001649282203F098FF1E232361BCE2012823
:10DE400026D1002011492C2203F08EFF0A4B1B68BB
:10DE50005D680123009301930A9804F1140104F111
:10DE600015023346A8474FF47A732361A4E200BF3A
:10DE7000244700208046002034440020E01F020098
:10DE80004847002020450020E81F0200F41F020040
:10DE9000A54B1B681F68002001210A462B46B84786
:10DEA000002800F089820020A0492D2203F05CFFA9
:10DEB0009F4B1B685D680123009301930A9804F14E
:10DEC000140104F115023346A8474FF47A73236115
:10DED00072E200209549502203F046FF954B1B68E3
:10DEE0001D6801206168227B04F11603A8476E2398
:10DEF000236161E28F4B1B681F6804F11606022044
:10DF00006168227B3346B847074600208749702264
:10DF100003F02AFF022F0FD1834B1B681E680120DC
:10DF2000014604222B46B047002080496E2203F0B0
:10DF30001BFF782323613FE27B4B1B681F68002097
:10DF4000012102222B46B847002800F03582784B89
:10DF50001B685D680123009301930A9804F1140182
:10DF600004F115023346A8474FF47A732361002069
:10DF70006E496F2203F0F8FE1EE2822323611BE24A
:10DF8000694B1B681E680020012104222B46B04704
:10DF9000002800F0118200206749822203F0E4FE8D
:10DFA000644B1B685D6800206168227BA37DA847E5
:10DFB0008C23236100E2E37D012B0BD15D4B1B68B9
:10DFC0005E6801206168227B04F11603B047A0233C
:10DFD000236101E096232361534B1B681C680120D9
:10DFE000014602222B46A047E6E1524B1B685F68C0
:10DFF00004F1160602206168227B3346B84798B9BF
:10E00000E37D5A1EE275C3F10703A27D23441A760D
:10E010004649962203F0A8FE00204849A27D03F05D
:10E02000A3FE8C232361C7E13F4B1B681F680020C0
:10E03000012102222B46B847002800F0BD813C4B4D
:10E040001B685D680123009301930A9804F1140191
:10E0500004F115023346A8474FF47A732361002078
:10E060003249972203F080FEA6E1324B1B685F68BD
:10E0700004F1160602206168227B3346B847D8B9FE
:10E08000E37D5A1EE275C3F10703A27D23441A768D
:10E090002649A02203F068FE00202849A27D03F053
:10E0A00063FE214B1B681E680120014604222B469B
:10E0B000B047C82323617FE11B4B1B681F6800200A
:10E0C000012104222B46B847002800F0758100206A
:10E0D0001649A12203F048FE154B1B685D68012319
:10E0E000009301930A9804F1140104F115023346D8
:10E0F000A8474FF47A7323615EE10D4B1B689D685E
:10E10000227D07230093002301930B98314604F1ED
:10E110001803A847002840F04F810449D22203F099
:10E1200023FEDC23236147E120450020F41F020089
:10E130003444002048470020FC1F02000820020051
:10E140009F4B1B685E6802206168227B04F1160306
:10E15000B047022840F030819A4B1B681E680120AE
:10E16000014604222B46B04700209749DC2203F0E9
:10E17000FBFDDD2323611FE1924B1B681E6800201D
:10E18000012104222B46B047002800F015818C4B5A
:10E190001B681D6800206168227B04F11603A847F4
:10E1A0000223A375E123236100208749DD2203F0C8
:10E1B000DBFD01E1824B1B681F6804F1160602209B
:10E1C0006168227B3346B847002840F0F58000277D
:10E1D000A7757C4B1B68D3F800C0012001460722BD
:10E1E0002B46E047764B1B681D6801206168227B47
:10E1F0003346A847E223236138467349E12203F0FE
:10E20000B3FDD9E06E4B1B681E6802206168227B5B
:10E2100004F11603B047002840F0CE800026A67512
:10E22000684B1B681F680120014604222B46B84733
:10E2300040F6CC03236130466349E12203F094FDAC
:10E24000BAE05F4B1B681E6802206168227B04F104
:10E250001603B047002840F0AF800026A675594B42
:10E260001B681F680120014604222B46B84740F670
:10E27000CD03236130465449E12203F075FD9BE054
:10E280004F4B1B681E6802206168227B04F1160355
:10E29000B047002840F090800026A675494B1B68C7
:10E2A0001F680120014604222B46B84740F6CE03E2
:10E2B000236130464449E12203F056FD7CE0404BA7
:10E2C0001B681E6802206168227B04F11603B047B8
:10E2D000002871D10026A6753A4B1B681F680120E3
:10E2E000014604222B46B84740F6CF03236130464F
:10E2F0003549E12203F038FD5EE0324B1B681E68B1
:10E300000020012107222B46B047002854D0E423E7
:10E31000236151E02A4B1B681D6802206168227B43
:10E3200004F11603A847022846D100202649E2221C
:10E3300003F01AFDE62323613EE000202249E62295
:10E3400003F012FDF023236136E01E4B1B681E68AC
:10E350000120014604222B46B047FA232361002006
:10E360001949F02203F000FD26E0164B1B681E68D9
:10E370000020012104222B46B047E8B100201249B9
:10E38000FA2203F0F1FC0023236115E02346FF226B
:10E3900003F8182F0D4A12689568227D012100911B
:10E3A000002101910B983146A84728B92061064900
:10E3B00040F24C4203F0D8FC04B0BDE8F08100BF4D
:10E3C0004847002020450020F41F0200344400206C
:10E3D00010B40B4C04600B4C44600B48019C04606F
:10E3E0000A4802600A4A13600A4B19600A4B029AF3
:10E3F0001A600A4B039A1A605DF8044B704700BF1D
:10E400009DDB0100F9D90100444400202045002093
:10E41000F4440020484700202447002034440020D2
:10E42000D0F8183513700120704700BFF8B50446C6
:10E430000D461646074A1268176802209DF8181004
:10E440001A46B84716B1C4F80453F8BDC4F80853C7
:10E45000F8BD00BFC846002080290FD002D804298B
:10E4600009D07047B1F5007F0BD0B1F5003F0BD15B
:10E470000023C0F844310023C0F808310023C0F85D
:10E480001C310023C0F82431704700BF042914D088
:10E4900004D8012923D0022927D02CE0B1F5007F30
:10E4A00017D0B1F5003F02D0802924D10BE0D0F87D
:10E4B0004401003018BF01207047D0F80801003037
:10E4C00018BF01207047D0F81C01003018BF012090
:10E4D0007047D0F82401003018BF01207047D0F8F1
:10E4E0000001003018BF01207047D0F8040100304F
:10E4F00018BF012070474FF0FF307047014B186084
:10E50000704700BFD03F002010B582B02948D0F836
:10E510008034C0F8803401930121FFF7B7FF18B1B0
:10E5200024480121FFF798FF22480221FFF7AEFFA0
:10E5300018B120480221FFF78FFF1E488021FFF706
:10E54000A5FF48B101221C4B1A7000221B4B1A7008
:10E5500018488021FFF780FF16480421FFF796FF37
:10E5600040B1144C164B1B682046984720460421A6
:10E57000FFF772FF0F484FF40031FFF787FF38B104
:10E580000C484FF40031FFF767FF00220D4B1A7063
:10E5900008484FF40071FFF779FF40B105484FF488
:10E5A0000071FFF759FF019B019B019B019B02B08A
:10E5B00010BD00BF00200040C43F0020DA3F002013
:10E5C000D03F0020E03F0020034B984201D1034898
:10E5D00070470020704700BF00200040D43F00205B
:10E5E000034B984201D1034870470020704700BF99
:10E5F00000200040C43F0020F8B5214A1278214C89
:10E6000024781443204A127882F0010222431F4CDE
:10E61000247884F0010414432FD11F460D4640B1E5
:10E620000846FFF7D1FF002606702846FFF7D8FFFF
:10E6300006702846FFF7C8FF0646037813B10A2B79
:10E640000BD01BE000201249024603F08DFB3B7803
:10E65000C5F81C350A23337010E000200C490A224B
:10E6600003F082FB2846FFF7BBFF0378012B05D19F
:10E67000002333700370012400E000242046F8BD1D
:10E68000DA3F0020C93F0020D93F0020E03F0020B2
:10E69000142002004AB349B92B4B1B7813F0FF0F2B
:10E6A00050D101238360284A13707047012909D192
:10E6B000264B1B7813F0FF0F44D101230360234A3C
:10E6C00013707047204B1B7813F0FF0F03D1012309
:10E6D00083601D4A13701D4B1B7813F0FF0F31D15F
:10E6E00001230360194A1370704751B9164B1B7808
:10E6F00013F0FF0F26D00123C3600022124B1A70C3
:10E70000704701290AD1114B1B7813F0FF0F19D064
:10E710000123436000220D4B1A7070470A4B1B788F
:10E7200013F0FF0F04D00123C3600022064B1A70C0
:10E73000064B1B7813F0FF0F04D001234360002227
:10E74000024B1A70704700BFD93F0020C83F00201D
:10E7500038B50446154602210022FFF79BFF9DF8BD
:10E760001430C4F86C35C4F82455134B9DF81820A8
:10E770001A70124B9DF81C201A60114B9DF8202036
:10E780001A609DF82C30C4F80C359DF83030C4F870
:10E7900014359DF83830C4F808359DF83430C4F885
:10E7A00010350423C4F800350122064B1A702046A8
:10E7B0000221FFF76FFF38BDD83F0020CC3F00207B
:10E7C000DC3F0020E03F002070B58CB004461646C8
:10E7D0001E4D29609DF8482000929DF84C20019222
:10E7E0009DF8502002929DF8542003929DF85820E5
:10E7F00004929DF85C200592189A06929DF8642078
:10E8000007929DF8682008929DF86C2009929DF867
:10E8100070200A9230461946109A9DF84430FFF74E
:10E8200097FF01220092304609490023FFF7FEFDC1
:10E83000084B6360084B2360084BA3602B681B697F
:10E840000220074998470CB070BD00BFC8460020A1
:10E850008602020021E40100F9E50100FDE4010067
:10E8600009E50100F0B583B00446174E33681D6812
:10E8700090F85C10012300930193806D00221346F1
:10E88000A84733685B6894F85C20A06D11469847F0
:10E8900033681F6894F85D10002500950195A06D00
:10E8A0002A462B46B84733681E68A06D94F85F105F
:10E8B0000095019505222B46B047044B1B689B68C9
:10E8C0000348984703B0F0BDC446002060440020D0
:10E8D000D5E801002D4B984257D110B52C4B1B6841
:10E8E000DB682C482C4A1178984704462B4B1B6850
:10E8F0005B68406D002104F110029847227C94F877
:10E9000060309A420CD100202549012203F02CFAF4
:10E910000023E36101236361237C84F8203010BD70
:10E920006269022A0CD100201D4903F01DFA227CE5
:10E93000A2616369E11881F820200133636110BD91
:10E94000A36902339A420ED100201549032203F035
:10E950000BFA6369217CE21882F8201001336361AD
:10E960000123E36110BD00200D49042203F0FCF9EE
:10E970006369322B01D1312363616369217CE21821
:10E9800082F820100133636110BD70470020004001
:10E990005044002048450020C0450020604400202D
:10E9A00020200200F0B585B007460E4615461C46ED
:10E9B000742003F00BFA029080F86070466585655C
:10E9C00080F85C409DF8283080F85D309DF82C3050
:10E9D00080F85E309DF8303080F85F300D9B4366E4
:10E9E0000E9B83660F9BC366109B0367044B1B68DB
:10E9F0001B68044801A99847034B186005B0F0BD97
:10EA00005044002048450020C045002030B583B068
:10EA10000C4610B100234B60CB61636813B1052B2A
:10EA200025D03AE0E369012B37D11D4B1B689D6867
:10EA300094F8212094F82230009301230193E06E92
:10EA4000616E04F12303A84710B90023E36108E0D5
:10EA5000042806D10023E361FF2384F82330052333
:10EA6000636000200F49024603F07EF915E00C4B6D
:10EA70001B689D6894F821200123009300230193D3
:10EA8000E06E616E04F12303A84708B900236360B8
:10EA900000200449052203F067F903B030BD00BF30
:10EAA000004500202C200200F0B583B005468B4BBA
:10EAB0001B68DB688A48C9B2984704462846214645
:10EAC000FFF7A4FF25B1002323602046FFF7CAFE0D
:10EAD0002368462B00F25D81DFE813F047005B01FD
:10EAE0005B015B015B015B015B015B015B015B0146
:10EAF00068005B015B015B015B015B015B015B012A
:10EB00005B015B0179005B015B015B015B015B0108
:10EB10005B015B015B015B01A8005B015B015B01C9
:10EB20005B015B015B015B015B015B01B9005B01A8
:10EB30005B015B015B015B015B015B015B015B01F5
:10EB4000E8005B015B015B015B015B015B015B0159
:10EB50005B015B010A015B015B015B015B015B0126
:10EB60005B015B015B015B0148015E4B1B685E68FA
:10EB700004F11005206F00230093019304F11301A9
:10EB800004F112022B46B047052800F00281002252
:10EB900062740A232360EF232374534B1B681E689F
:10EBA000616D012000902B46B047F2E04E4B1B6890
:10EBB0001D68616D012300930020024604F11003DB
:10EBC000A847002800F0E58014232360E1E0454BCE
:10EBD0001B68D3F804C004F1130504F1120704F113
:10EBE0001006206F00230093019329463A463346CE
:10EBF000E04702280ED13B4B1B68D3F804C0206FBE
:10EC000001230093019329463A463346E0476423A3
:10EC10002360BEE0344B1B681E68616D01200090CC
:10EC200000222B46B0471E232360B2E02E4B1B6808
:10EC30001D68616D012300930020024604F110035A
:10EC4000A847002800F0A58028232360A1E0254BD9
:10EC50001B68D3F804C004F1130704F1120504F192
:10EC60001006206F00230093019339462A4633464D
:10EC7000E04702280ED11B4B1B68D3F804C0206F5D
:10EC800001230093019339462A463346E047642323
:10EC900023607EE0144B1B681E68616D01200090AC
:10ECA00000222B46B0473223236072E00E4B1B68D4
:10ECB0001D68616D012300930020024604F11203D8
:10ECC000A847002865D000200849322203F04CF8FC
:10ECD000002363613C2323605BE000BF50440020BD
:10ECE000484500200045002060440020B01F02007D
:10ECF000294B1B68D3F804C0206F04F1130704F1FB
:10ED0000120604F1100563695A1C6261DBB20093BC
:10ED100000230193394632462B46E04702280ED1A4
:10ED20001D4B1B68D3F804C0206F0123009301938F
:10ED3000394632462B46E0470023236029E0174E30
:10ED4000002031463C2203F00FF800203146227C9F
:10ED500003F00AF8124B1B681E68616D01200090D9
:10ED600000222B46B0474623236012E00C4B1B6861
:10ED70001D68616D012300930020024604F1100319
:10ED8000A84730B100200549462202F0EDFF3C23A0
:10ED9000236003B0F0BD00BF00450020B01F02009B
:10EDA0006044002010B40B4C04600B4C44600B48D2
:10EDB00001600B490A600B4A13600B4B019A1A6001
:10EDC0000A4B029A1A600A4B039A1A605DF8044BC8
:10EDD000704700BFA9EA0100A5E901000045002035
:10EDE00070450020CC46002060440020C44600202E
:10EDF00050440020F8B50F4616461D469DF81840B1
:10EE0000174B1B68DB68C1B21648984703782BB3D1
:10EE10009DF81C300BB100230370C378013B9C426A
:10EE200008DA43783B70C3783370204403792B7041
:10EE30000020F8BD9C4209D143783B70C378337001
:10EE4000C3781844C3782B700320F8BD43783B7017
:10EE5000C3783370FF232B700220F8BD0520F8BD66
:10EE6000D0460020C445002070B516461D46049CBF
:10EE70000C4B1B68DB68C1B20B48984703787BB921
:10EE80004670C470837004E0E95CC21811710133EC
:10EE900083708378A342F7D301230370002070BDF1
:10EEA000012070BDD0460020C445002000B585B0CB
:10EEB000362002F08BFF029000230370029AD37079
:10EEC0001222029B5A70044B1B681B68034801A95D
:10EED000984705B05DF804FBD0460020C4450020EB
:10EEE000054B0360054B4360054B8360054B196080
:10EEF000054B1A60704700BFADEE0100F5ED010053
:10EF000069EE010040450020D046002008B540B120
:10EF1000084B1B685B684FF0A04010210A469847D9
:10EF200008BD044B1B685B684FF0A0401021002215
:10EF3000984708BD4047002008B540B1084B1B6802
:10EF40005B684FF0A0400F210A46984708BD044B6C
:10EF50001B685B684FF0A0400F210022984708BD56
:10EF60004047002008B540B1084B1B685B684FF074
:10EF7000A04004210A46984708BD044B1B685B6803
:10EF80004FF0A04004210022984708BD40470020D0
:10EF900008B540B1084B1B685B684FF0A0401E21CC
:10EFA0000A46984708BD044B1B685B684FF0A040B9
:10EFB0001E210022984708BD4047002008B540B1F7
:10EFC000084B1B685B684FF0A0401E210022984749
:10EFD00008BD044B1B685B684FF0A0400A210A463D
:10EFE000984708BD4047002010B50446074B1B68F2
:10EFF0001B68583004F15C01984794F8583084F845
:10F00000243084F825300223A36110BDFC44002085
:10F0100038B504460B4D2B689B684FF0A040122179
:10F0200098472B689B684FF0A04013219847012810
:10F0300001D0012200E003220123A36184F82420EF
:10F0400038BD00BF4047002030B585B0039108B1FE
:10F0500000220A60039B1A683C2A00F0C98010D87D
:10F06000142A75D003D822B30A2A6ED054E1282A74
:10F0700000F09680322A00F0A7801E2A40F04C81D2
:10F080007AE0642A00F0E48009D8502A00F0CB80AE
:10F090005A2A00F0CF80462A40F03E81AFE0C82ACD
:10F0A00000F01A81D22A00F028816E2A40F03481C3
:10F0B000F6E09A4A126854685868012200920022C9
:10F0C000019203F11C0103F118021033A047052837
:10F0D00000F02281039AD369082B02D10A2313601E
:10F0E0001AE1102B08D100208D49012202F03CFECC
:10F0F0001422039B1A600FE10A2B02D11E23136016
:10F100000AE10B2B02D12823136005E10C2B02D15D
:10F110003223136000E1022B02D13C231360FBE099
:10F12000032B02D146231360F6E00D2B02D15023AE
:10F130001360F1E00E2B02D15A231360ECE0092B8F
:10F1400040F0EA8064231360E6E0C8221A60E3E03E
:10F150001B69012B04D1012003A9FFF7EDFE03E099
:10F16000002003A9FFF7E8FE039B012283F8242077
:10F170009A61C8221A60CFE01B69012B04D10120DB
:10F1800003A9FFF7C3FE03E0002003A9FFF7BEFEBB
:10F19000039B012283F824209A61C8221A60BBE0F5
:10F1A0001B69012B04D1012003A9FFF7DBFE03E05B
:10F1B000002003A9FFF7D6FE039B012283F8242039
:10F1C0009A61C8221A60A7E01B69012B04D10120B3
:10F1D00003A9FFF7DDFE03E0002003A9FFF7D8FE37
:10F1E000039B012283F824209A61C8221A6093E0CD
:10F1F0001846FFF7F9FEC822039B1A608CE01B69D2
:10F20000012B04D1012003A9FFF7D8FE03E0002061
:10F2100003A9FFF7D3FE039B01229A6183F8242000
:10F2200000221A6078E01846FFF7F2FEC822039B1E
:10F230001A6071E03B4B1B685B684FF08040984759
:10F24000039B01229A6183F82420C8221A6063E09C
:10F25000354B1B685B684FF0A04003210A46984776
:10F2600000203249012202F07FFD314B1B681C68EF
:10F2700001200021039A10320346A047274B1B6848
:10F280005C68039B586801220092019203F11C0103
:10F2900003F118021033A0476E22039B1A603BE073
:10F2A00000202249032202F05FFD214B1B681C68ED
:10F2B00000200146039A10320123A04700282BD0DA
:10F2C000039B02229A611A6983F82420120A83F8A8
:10F2D0002520D2221A601FE0104A1268546858682C
:10F2E00001220092019203F11C0103F11802103374
:10F2F000A047D222039B1A600EE0084A1268946865
:10F300009868D9681A7F9D69009500250195243376
:10F31000A04708B9039B1D6005B030BD1C47002005
:10F3200034200200FC44002040470020402002001E
:10F33000EC44002010B40A4C04600A4801600A49F9
:10F340000A600A4A13600A4B019A1A60094B029A32
:10F350001A60094B039A1A605DF8044B704700BFAE
:10F3600049F0010078440020FC4400204C44002077
:10F3700040470020EC4400201C470020012343505C
:10F38000704700BFD0F81805C0B27047C0F8082514
:10F39000C0F80C35C0F824150523C0F800357047B7
:10F3A000802923D004D8022918D0042912D070470C
:10F3B000B1F5804F06D0B1F5802F13D0B1F5007FA5
:10F3C00017D103E00023C0F8383170470023C0F89C
:10F3D000243170470023C0F8083170470023C0F87B
:10F3E000043170470023C0F8483170470023C0F84B
:10F3F0001C317047F8B504460D4616461F460948AD
:10F400000949FFF7CDFF094B1B681B6803209DF8D6
:10F4100018103A46984716B1C4F80453F8BDC4F81A
:10F420000853F8BD00300040864204009C44002090
:10F4300080292DD004D802291ED0042916D02DE011
:10F44000B1F5804F06D0B1F5802F1BD0B1F5007F0C
:10F4500024D105E0D0F83801003018BF01207047F2
:10F46000D0F82401003018BF01207047D0F80801FF
:10F47000003018BF01207047D0F80401003018BFD9
:10F4800001207047D0F84801003018BF01207047B4
:10F49000D0F81C01003018BF01207047704700BF32
:10F4A000D0F800321943C0F800127047D0F800328B
:10F4B00023EA0101C0F80012704700BF10B582B006
:10F4C0000446C0F8881500218DF8071005E09DF866
:10F4D00007100131C9B28DF807109DF80710C9B2A5
:10F4E0006329F4D993B142B120460821FFF746FFC2
:10F4F00020460021FFF7D4FF0CE020460121FFF752
:10F50000CFFF20460021FFF739FF03E020461421FA
:10F51000FFF734FF012002B010BD00BF064B984238
:10F5200003D0B0F1402F04D001E004487047002020
:10F5300070470348704700BF00300040F03F002094
:10F54000F13F0020064B984203D0B0F1402F04D089
:10F5500001E004487047002070470348704700BF2F
:10F5600000300040F43F0020F53F002010B5354842
:10F570004FF48041FFF75CFF48B10020324901227F
:10F5800002F0F2FB2F484FF48041FFF709FF2D48AE
:10F590004FF40071FFF74CFF60B100202A490222AE
:10F5A00002F0E2FB0122294B1A7026484FF4007149
:10F5B000FFF7F6FE23480421FFF73AFF70B1002061
:10F5C0002149032202F0D0FB1E4C2046FFF7BAFF70
:10F5D0000123037020460421FFF7E2FE19480221AF
:10F5E000FFF726FF58B100201749292202F0BCFB83
:10F5F0000122174B1A7013480221FFF7D1FE114860
:10F600004FF48021FFF714FF48B100200E49042277
:10F6100002F0AAFB0B484FF48021FFF7C1FE094816
:10F620008021FFF705FF58B100200749052202F0AD
:10F630009BFB0122074B1A7002488021FFF7B0FEA6
:10F6400010BD00BF003000404C200200F03F002001
:10F65000EC3F0020E83F0020064B984203D0B0F179
:10F66000402F04D001E00448704700207047034851
:10F67000704700BF00300040E83F0020E93F002015
:10F68000064B984203D0B0F1402F04D001E004486B
:10F690007047002070470348704700BF00300040AB
:10F6A000EC3F0020ED3F0020064B984203D0B0F124
:10F6B000402F04D001E00448704700207047034801
:10F6C000704700BF00300040F83F0020F93F0020A5
:10F6D000F8B50D4616461C4608BB0846FFF71EFF48
:10F6E000002707702846FFF7B7FF07702846FFF787
:10F6F000C7FF07702846FFF7D7FF07702846FFF7B8
:10F7000041FE207038464449652202F02DFB284610
:10F71000314601221346FFF7D1FE0320F8BD012830
:10F7200011D100203C49662202F01EFB28463146DA
:10F7300001220023FFF7C2FE2846FFF7B5FF64232E
:10F7400003700320F8BD0846FFF7AEFF06460378B6
:10F750000A2B1ED001D82BB159E0142B37D0642BC3
:10F7600045D054E02C4F00203946024602F0FCFA06
:10F770002378C5F81C3500203946227802F0F4FAC7
:10F78000002039460F2202F0EFFA0A2333700320DB
:10F79000F8BD2846FFF760FF037843B114233370A8
:10F7A00000201D490A2202F0DFFA0320F8BD284696
:10F7B000FFF7B4FE03785BB300230370E8223270D6
:10F7C000184615490B2202F0CFFA0120F8BD00209F
:10F7D0001149142202F0C8FA2846FFF73DFF002421
:10F7E00004702846FFF7CEFD34702046F8BD284649
:10F7F000FFF746FF03786BB100230370E8223270F5
:10F8000018460549652202F0AFFA0220F8BDF8BD9E
:10F810000320F8BD0320F8BD4C200200064B98429F
:10F8200003D0B0F1402F04D001E00448704700201D
:10F8300070470348704700BF00300040E43F00209D
:10F84000E53F00202DE9F0410C4616461F4610BB4F
:10F850000846FFF763FE002505702046FFF710FFFE
:10F8600005702046FFF76EFE05702046FFF7D6FFB5
:10F87000057028466149C82202F076FA2046FFF753
:10F8800081FD3870204631462A460123FFF716FED7
:10F890000320BDE8F081012816D1002057496422D9
:10F8A00002F062FA20460221FFF7FAFD20463146B7
:10F8B00000221346FFF702FE2046FFF7AFFF642346
:10F8C00003700320BDE8F0810846FFF7A7FF064656
:10F8D0000378642B2DD06E2B57D0002B40F0838003
:10F8E0002046FFF72FFE064603788BB100204349E0
:10F8F000024602F039FA002535702046FFF742FD36
:10F90000387020462021FFF739FD2846BDE8F081F8
:10F910002046FFF703FE04460378002B65D0002045
:10F920003649012202F020FA002323700120BDE8AD
:10F93000F0812046FFF706FE80460378A3B1002041
:10F940002E490A2202F010FA002588F800502046BD
:10F95000FFF718FD387020462021FFF70FFD6E23BA
:10F9600033702846BDE8F0812046FFF7D7FD0446F6
:10F970000378002B3CD0002020490B2202F0F4F940
:10F98000002323700120BDE8F0812046FFF778FEB8
:10F9900005460378B3B1002018490C2202F0E4F9BF
:10F9A00020460221FFF782FD2046FFF7EBFC38706E
:10F9B00020460121FFF77AFD00232B7033700220CF
:10F9C000BDE8F0812046FFF7A9FD0446037893B116
:10F9D00000200A490D2202F0C7F90023337023707A
:10F9E0000120BDE8F081BDE8F0810320BDE8F08191
:10F9F0000320BDE8F0810320BDE8F081582002001B
:10FA000008B5094B0361094BC360094B8360094B7F
:10FA10004361094B4360094B0360094B19600B6953
:10FA200003200849984708BD8DF30100A1F30100A8
:10FA3000F5F3010031F4010045F80100D1F60100B1
:10FA40009C4400206DF5010010B4D0F8103523F06F
:10FA50000F0402F00F032343C0F81035D0F8083527
:10FA600023F0030301F003011943C0F80815D0F88F
:10FA7000003243F47C5343F03F03C0F80032092ABC
:10FA80002FD8DFE802F005090D1115191D21252ACF
:10FA9000154A164B1A6024E0154A144B1A6020E0F0
:10FAA000144A124B1A601CE0134A104B1A6018E0FB
:10FAB000124A0E4B1A6014E0114A0C4B1A6010E007
:10FAC000104A0A4B1A600CE00F4A084B1A6008E013
:10FAD0004FF22442054B1A6003E047F61222034B13
:10FAE0001A605DF8044B70470024F4009444002031
:10FAF00000127A0000093D0080841E0040420F0081
:10FB000020A1070090D0030048E801002DE9F04152
:10FB100004460F4690461D469DF81860214B9842BA
:10FB20001FD008D8A3F5005398420CD003F580539A
:10FB300098420FD02AE01C4B984219D003F580530D
:10FB400098421CD022E0194B1B681B6808203146E4
:10FB50002A469847154B1B681B68092031462A46E0
:10FB60009847124B1B681B680A2031462A46984763
:10FB70000E4B1B681B681A2031462A4698470B4BD0
:10FB80001B681B681B2031462A469847B8F1000FB6
:10FB900003D0C4F80473BDE8F081C4F80873BDE86D
:10FBA000F08100BF00A0004000A001409844002068
:10FBB000B1F5003F0FD003D8B1F5803F07D07047B3
:10FBC000B1F5802F0BD0B1F5002F0CD0704700237A
:10FBD000C0F8403170470023C0F84431704700231B
:10FBE000C0F8483170470023C0F84C31704700BF5F
:10FBF000B1F5003F11D003D8B1F5803F07D01EE02A
:10FC0000B1F5802F0FD0B1F5002F12D017E0D0F84A
:10FC10004001003018BF01207047D0F84401003087
:10FC200018BF01207047D0F84801003018BF0120EC
:10FC30007047D0F84C01003018BF01207047704762
:10FC400001234360704700BF0123C360704700BFBA
:10FC5000104B984213D008D8A3F5005398420CD00B
:10FC600003F58053984212D00FE00B4B984208D016
:10FC700003F58053984206D007E0084870470848CB
:10FC80007047084870470848704700207047074889
:10FC9000704700BF00A0004000A00140FC3F0020D2
:10FCA000FE3F0020FF3F002000400020FD3F0020DD
:10FCB000104B984213D008D8A3F5005398420CD0AB
:10FCC00003F58053984212D00FE00B4B984208D0B6
:10FCD00003F58053984206D007E00848704708486B
:10FCE0007047084870470848704700207047074829
:10FCF000704700BF00A0004000A001400440002069
:10FD00000640002007400020084000200540002059
:10FD100010B504464FF48031FFF76AFF48B1204622
:10FD20004FF48031FFF744FF2046FFF7C1FF012366
:10FD3000037020464FF40031FFF75AFF20B12046F0
:10FD40004FF40031FFF734FF20464FF48021FFF7D6
:10FD50004FFF20B120464FF48021FFF729FF2046B6
:10FD60004FF40021FFF744FF20B120464FF400215B
:10FD7000FFF71EFF20464FF48011FFF739FF20B137
:10FD800020464FF48011FFF713FF10BD08B502485D
:10FD9000FFF7BEFF08BD00BF0080004008B5024865
:10FDA000FFF7B6FF08BD00BF0090004008B502484D
:10FDB000FFF7AEFF08BD00BF00A0004008B5024835
:10FDC000FFF7A6FF08BD00BF00A0014008B502482C
:10FDD000FFF79EFF08BD00BF00B00140F8B50C461C
:10FDE00017461E4640B10846FFF732FF0025057052
:10FDF0002046FFF75DFF05702046FFF729FF054607
:10FE0000037813B10A2B0DD014E00B4B1A6802FBD8
:10FE100007F2F240C4F84025012323600A2303704F
:10FE20000020F8BD2046FFF743FF007818B10023FB
:10FE30002B70F8BD0020F8BD9444002070B5164624
:10FE40001D46164B8360164B0361164BC360164B61
:10FE50004361164B0360164B4360164C21600B69DF
:10FE600008201549984723681B69092013499847BA
:10FE700023681B690A201249984723681B691A20C6
:10FE80001049984723681B691B200F499847304643
:10FE900029469DF81020FFF7D7FD70BD49FC0100F1
:10FEA000B1FB01000DFB0100F1FB0100DDFD0100D4
:10FEB00041FC0100984400208DFD01009DFD0100E2
:10FEC000ADFD0100BDFD0100CDFD010030B40948CC
:10FED00004689DF80C509DF8080040EA450040EA8F
:10FEE000830343EA022201F5E07144F8212030BC8B
:10FEF000704700BF143F0020114206D0064B1A681D
:10FF000001238B40C2F808357047034B1A68012360
:10FF10008B40C2F80C357047143F0020034B1B6820
:10FF2000D3F81005C84000F001007047143F0020CE
:10FF30002DE9F04F85B003900D4693469A46DDF8C3
:10FF40003890DDF83C80109F119E00240FE01AF8D5
:10FF5000041019F8042018F80430385D0090305D62
:10FF600001905BF82400FFF7B1FF0134E4B2AC422A
:10FF7000EDD3054B03998B60044B4B60044B0B6036
:10FF800005B0BDE8F08F00BF1DFF0100F9FE0100C4
:10FF9000CDFE0100F8B504460D461646074A126824
:10FFA000176804209DF818101A46B84716B1C4F80F
:10FFB0000453F8BDC4F80853F8BD00BF44470020FF
:10FFC00030B49DF808409DF81050C0F808559DF8D1
:10FFD0001450C0F80C559DF81850C0F81055C0F8D2
:10FFE0002415114632B92BB9003418BF0124C0F8CA
:10FFF000544520E0012909D1012B07D1003418BF55
:020000022000DC
:10000000012444F00604C0F8544514E049B9012B1A
:1000100007D1003418BF012444F00404C0F854454B
:1000200009E0012907D133B9003418BF012444F095
:100030000204C0F85445044B9DF81C201A7001239B
:10004000C0F8003530BC704710400020B0F1402FA0
:100050000CD0074B984205D0A3F50033984203D14A
:1000600004487047044870470020704703487047B1
:1000700000300240144000201640002015400020AF
:10008000B0F1402F0CD0074B984205D0A3F50033B8
:10009000984203D1044870470448704700207047D5
:1000A00003487047003002400C4000200E40002002
:1000B0000D40002070B50C46164640B10846FFF7CB
:1000C000C5FF002505702046FFF7DAFF05702046C2
:1000D000FFF7BCFF054603780A2B09D0142B13D079
:1000E000CBB93378C4F81C350A230370002070BDE7
:1000F0002046FFF7C5FF0378012B0DD114232B7089
:1001000000230370184670BDD4F8183533700023EF
:100110000370012070BD70BD002070BD042902D1A4
:100120000023C0F808317047042905D1D0F8080130
:10013000003018BF01207047704700BF08B54FF06E
:1001400040200421FFF7F0FF38B10122034B5A7021
:100150004FF040200421FFF7E1FF08BD0C400020D4
:1001600030B589B005460C469DF8381000910F99BE
:1001700001919DF8401002919DF8441003919DF863
:10018000481004919DF84C100591012106911046EC
:1001900019469DF834209DF83030FFF711FF064BCB
:1001A0006B60064B2B60064B1C60236904200549DD
:1001B000984709B030BD00BF95FF0100B5000200AF
:1001C000444700203D01020030B585B005460C468D
:1001D0000C2001F0FBFD02900570029B5C60044B5B
:1001E0001B681B68034801A9984705B030BD00BFD4
:1001F000B4450020784700202DE9F04F85B09246A5
:1002000091F80090B04B1B68DB68C1B2AF489847CB
:1002100005460020AE492A4601F0A6FDCDF8009023
:10022000484601F0D3FD044680F80190022305E022
:100230009A1E1AF80220E2540133DBB24B45F7D381
:100240002E78B00001F0C2FD07464FF0000808E02C
:10025000082001F0BBFD47F8280008F101085FFA0B
:1002600088F8B045F4D300209949022201F07CFDC2
:1002700009F102030193184601F0A8FD80464FF0F2
:10028000000B00F809B009F1010300F803B031E0F8
:10029000DE4608EB0B00002308F80B3024E014F8CE
:1002A0000E1001229A400A4002A9CA545A00C2F113
:1002B000070CBCF1000F09DD017804AA1A4412F8FA
:1002C000082C02FA0CF20A4302700BE090F800C00E
:1002D00004A9194411F8081C073A11414CEA010C11
:1002E00080F800C00133DBB2072BD8D90BF1010B2A
:1002F0005FFA8BFBCB45CBD300207549032201F07D
:1003000033FD00231C4610E0B21ED21A08D418F8A0
:100310000310082000FA02F201FA02F2144302E08C
:1003200018F8032014430133DBB2B342ECD3DFF8F7
:10033000A0B100205946042201F016FD00205946C4
:100340004A4601F011FD0221DDF804E028E014F432
:10035000004F0FD018F80120C3F1070C012000FA5C
:100360000CF0024042FA0CF040EA4402686880EA6D
:1003700002040DE018F80100C3F107024FF0010C70
:100380000CFA02FC00EA0C0C4CFA02FC4CEA4404A5
:100390000133DBB200E00023072BD8D90131C9B209
:1003A0008E45F8DC00204A49052201F0DDFC0023DF
:1003B0000FE0B21ED21A08D408219140FF228A40D1
:1003C0002240CA40E9180A7201E0EA1814720133A7
:1003D000DBB2B342EDD3002412E057F824102A19FF
:1003E000107A01229A400240CA540133DBB200E085
:1003F0000023072BF1D92B1900221A720134E4B221
:10040000B442F5D3002029E05A00C2F10704002CC1
:100410000EDD05EB000E9EF808C0711E091A57F894
:100420002120D25CA2404CEA02028EF808200DE0A6
:100430002C1894F808E0711E091A57F82110C95CAD
:10044000073A41FA02F24EEA020222720133DBB2AB
:1004500000E00023072BD7D90130C0B2B042F8D357
:100460000023009807E0821A1A44E918097A0AF86A
:1004700002100133DBB22A789A42F4D8404601F0E8
:10048000ADFC002405E057F8240001F0A7FC01347E
:10049000E4B2B442F7D3384601F0A0FC00200C4986
:1004A000024601F061FC002305E003F10802D54299
:1004B00005D10133DBB2B342F7D3012000E00020C5
:1004C00005B0BDE8F08F00BFB4450020784700209C
:1004D00064200200034B0360034B4360034B19602D
:1004E000704700BFF9010200C9010200B4450020B5
:1004F00030B583B00446104D2B685B68406894F8B3
:100500005310002298472B685B68606894F8541079
:10051000002298472B685B6894F856206068114663
:100520009847064B1B685D682068012200920421F1
:100530000023A84703B030BD74470020D0440020FA
:10054000F0B585B004460D4617461E46582001F00A
:100550003DFC029080F84E7080F84F604560029B31
:100560001C60029B9DF8302083F855209DF82C20BC
:1005700083F854209DF8282083F853209DF83420D8
:1005800083F85620034B1B681B68034801A9984752
:1005900005B0F0BDDC4400207446002070B5144660
:1005A0001D4609B10023D360E368142B57D009D846
:1005B000022B24D001D8C3B1B6E0052B2DD00A2BD5
:1005C0003FD0B1E0322B00F08B8004D81E2B5CD0E2
:1005D000282B6AD0A8E0B3F57A7F00F09D8040F226
:1005E0004C42934200F09C809EE00378002B00F088
:1005F0009D80002303700222E260184670BD2269CC
:1006000094F850309A4203D20523E360002070BD75
:1006100040F24C43E360002070BD474B1B685B68B1
:1006200094F856206068114698470A23E360434BCC
:100630001B681C680120014607222B46A0470020AA
:1006400070BD3E4B1B681E680120014607222B46E9
:10065000B04720B12046FFF74BFF1423E360374B30
:100660001B681E680120014607222B46B047002860
:100670005ED0324B1B681E680120014602462B46A5
:10068000B0471E23E360002070BD94F84F3084F81B
:100690004C302B4B1B681B682246012052F84C1B28
:1006A00098472823E360002070BD254B1B681B681A
:1006B0002246002052F84C1B984718B13223E360C1
:1006C000002070BD1D4B1B681E68012001460246BC
:1006D0002B46B04700282DD00223E360002070BDD8
:1006E00094F84C2094F84F309A4203D10023E360F1
:1006F000012070BD114B1B681E6801200146024697
:100700002B46B04720B14FF47A73E360002070BDF0
:100710001E23E360002070BD0223E360002070BD53
:100720000023E360022070BD002070BD002070BD7A
:10073000002070BD002070BD744700205C45002083
:10074000D04400202DE9F04182B0064617461D46F0
:10075000B24B1B68DB68B248C9B2984704464EB139
:10076000FFF7C6FE0020A0602061012122462B4633
:10077000FFF714FFA3686E2B00F0348119D8142BF7
:100780007DD007D8052B54D00A2B65D0002B40F024
:10079000498231E0462B00F0E48003D83C2B00F086
:1007A000B0803FE2642B00F0DC80692B00F0FD801C
:1007B00038E28C2B00F0A6810ED8752B00F06A81F0
:1007C00003D8732B00F047812CE2782B00F0738163
:1007D000822B00F0798125E2A02B00F0DF8103D885
:1007E000962B00F0B8811DE2C82B00F0E781B3F52D
:1007F0007A7F00F0FE8115E28A4B1B685E68002359
:1008000000930193089804F14A0104F14B0204F1AA
:100810004C03B047052800F0058294F84A2094F86C
:100820004E309A4240F0FE81002363610523A360AD
:10083000F8E17D4B1B685B68606894F856100022F5
:1008400098477A4B1B681E680120014607222B46F9
:10085000B0470A23A360E5E1744B1B681E680020C3
:10086000012107222B46B047002800F0DB8100233E
:1008700084F8573084F84D301423A360D2E1694BDB
:100880001B68D3F804C004F14A0804F14B0704F1D3
:100890004C0694F84D305A1C84F84D2000930023E8
:1008A0000193089841463A463346E047022816D15C
:1008B00000205F491E2201F057FA5A4B1B68D3F8FB
:1008C00004C0012300930193089841463A463346F9
:1008D000E047002384F84D306423A360A2E1554B28
:1008E0001B681B6801202168324698474F4B1B68E4
:1008F0001E680120014602462B46B0473C23A360F8
:1009000090E14C4B1B681B6804F14C0600202168E9
:100910003246984748B194F84C30FF2B02D101235E
:1009200084F857301423A3607CE1404B1B681F6898
:10093000002001210A462B46B847002800F07281AA
:10094000384B1B685F68012300930193089804F1FA
:100950004A0104F14B023346B8474FF47A73A3605F
:1009600060E194F85730DBB1636901336361626918
:1009700094F850309A4203D94FF47A73A36009E097
:100980002A4B1B681E680120014607222B46B047F0
:100990000A23A36000202649642201F0E5F941E121
:1009A000002363616923A3603CE194F84D30022B7E
:1009B00015D8002384F84C301E4B1B681B68224658
:1009C000012052F84C1B9847184B1B681E680120E9
:1009D000014602462B46B0476E23A36022E17323F3
:1009E000A3601FE1134B1B681B682246002052F8CE
:1009F0004C1B984700B394F84D305A1C84F84D2096
:100A000094F84C2023441A76FF2384F84C300123B9
:100A100084F857306923A36004E100BFDC44002060
:100A20007446002090440020744700205C4500205C
:100A300070200200D0440020804B1B681E680120FB
:100A4000014602462B46B047002800F0EB804FF4E9
:100A50007A73A360E6E094F85730B3B16369013369
:100A60006361626994F850309A4203D94FF47A7303
:100A7000A360D7E0714B1B681E6801200146072266
:100A80002B46B0477523A360CCE000236361782335
:100A9000A360C7E0694B1B681E680120014607225E
:100AA0002B46B047002800F0BD80002384F84D306D
:100AB0006923A360B6E0002384F85730636184F8AB
:100AC0004D308223A360ADE0A37E94F84D209A427E
:100AD00015D2002384F84C30594B1B681B68224602
:100AE000012052F84C1B9847544B1B681E6801208C
:100AF000014602462B46B0478C23A36092E0962322
:100B0000A3608FE04E4B1B681B682246012052F801
:100B10004C1B984788B194F84D305A1C84F84D20EE
:100B200094F84C2023441A76FF2384F84C30012398
:100B300084F857308223A36074E0404B1B681E6822
:100B40000120014602462B46B04700286AD04FF4E8
:100B50007A73A36066E094F85730B3B163690133E8
:100B60006361626994F850309A4203D94FF47A7302
:100B7000A36057E0314B1B681E6801200146072225
:100B80002B46B047A023A3604CE0002384F85730E5
:100B9000636184F84D30C823A36043E0274B1B6892
:100BA0001E680120014607222B46B047002839D095
:100BB0008223A360002384F84D3033E0214B1B686F
:100BC0009E68A37E033394F84A2000930023019388
:100BD0000998394604F11803B04738B91A4B1B6815
:100BE0005B6894F856206068114698470023A3601C
:100BF00018E0144B1B689E6894F84A200123009368
:100C0000002301930998394604F11803B04748B905
:100C10000D4B1B685B6894F8562060681146984736
:100C20000023A36004F15100002122462B46FFF768
:100C3000B5FC84F8520002B0BDE8F0815C450020AC
:100C4000D0440020904400207447002010B40B4C86
:100C500004600B4C44600B48019C04600A4802602D
:100C60000A4A11600A4A029911600A4A13600A4B43
:100C7000039A1A605DF8044B704700BF45070200F5
:100C800041050200584500205C45002074470020C3
:100C9000DC440020D04400209044002083682BB91D
:100CA00008E003788B4201D14068704780680028D3
:100CB000F7D170470020704738B504460D460C2028
:100CC00001F084F8002383606A68426004E0013325
:100CD000DBB21446C82B06D8A268002AF7D10370ED
:100CE000A060184638BD002038BD00BF08B50346D7
:100CF000806858B182688A609A6852684A609A68C7
:100D000092689A6001F06AF8012008BD002008BDD1
:100D100008B583685BB90FE01A788A4206D19A68F1
:100D20008260184601F05AF8012008BD1846836811
:100D3000002BF1D1002008BD002008BD806828B933
:100D40000120704701F04AF8204600E010B58468A1
:100D5000002CF7D101F042F8012010BD054B436093
:100D6000054B0360054B8360054BC360054B036176
:100D7000704700BFED0C0200B90C0200110D02001B
:100D80009D0C02003D0D0200F0B585B006460C46F4
:100D900015461F46502001F019F80290076180F8AF
:100DA0004E600560029B5C60029B9DF828201A72D1
:100DB0009DF82C205A729DF830209A729DF83820A8
:100DC0001A739DF83420DA72034B1B681B680348C2
:100DD00001A9984705B0F0BD0845002068460020ED
:100DE000F0B583B0384D2B681E6800240094019440
:100DF0004FF0A0401A2106220323B0472B681E683B
:100E0000009401944FF0A0401B2106220323B04719
:100E10002B685B684FF0A0401A210A4698472B6860
:100E20005B684FF0A0401B210A4698472B681F685B
:100E30000126009601944FF0A0401A2106220323B8
:100E4000B8472B681D68009601944FF0A0401B2105
:100E500006220323A84732E01B4B1B685B684FF058
:100E6000A0401B2100229847002300E00133B3F586
:100E70007A7FFBD3144B1B685B684FF0A0401B21AB
:100E80000A469847002300E00133B3F57A7FFBD38D
:100E90000D4B1B685B684FF0A0401A210022984759
:100EA000002300E00133B3F57A7FFBD3064B1B68C8
:100EB0005B684FF0A0401A210A4698470134092C7C
:100EC000CAD903B0F0BD00BFB8450020F0B583B06B
:100ED0000446FFF785FF174E33681F68617A237B4E
:100EE00000250095019520680622B84733681F68E1
:100EF000217AE37A0095019520680622B8470E4FC3
:100F00003B68D3F810C060684FF0CC711B221A23E5
:100F1000E0473B689F6801220092606844F28621A6
:100F20002B46B84733685B68A27A20681146984719
:100F300003B0F0BDB84500204C4600202DE9F0413B
:100F400082B0054617461E46AB4B1B68DB68AB48B4
:100F5000C9B2984704461DB1FFF7B8FF002363618B
:100F60006369962B00F02E8114D8142B6ED007D80D
:100F7000052B42D00A2B4BD0002B40F0218222E0DF
:100F8000642B00F0EA80782B00F0F7801E2B40F0F5
:100F9000178297E0E62B00F0DE8109D8C82B00F01D
:100FA0009981DC2B00F0A881A02B40F0098253E14D
:100FB000FA2B00F0DE81B3F57A7F00F0EB81F02BA5
:100FC00040F0FE81CAE18E4B1B685D6800230093F0
:100FD0000193089804F1180104F1190204F11A03AD
:100FE000A847052800F0EC81227E94F84E309A4202
:100FF00040F0E68105236361E2E1824B1B681D68D6
:101000000120014607223346A8470A236361D7E13E
:101010007C4B1B681D680020012107223346A8472E
:10102000002800F0CD81002077490A2200F09CFEC4
:10103000764B1B681D6800206168227C04F11A034E
:10104000A8470023E37614236361B9E16C4B1B6866
:10105000D3F804C004F1180804F1190704F11A05C3
:10106000E37E5A1CE27600930023019308984146E0
:101070003A462B46E047022814D100206249152247
:1010800000F072FE0423E3765D4B1B685E6801236B
:1010900000930193089841463A462B46B047642393
:1010A00063618DE100205849142200F05DFE554B2C
:1010B0001B681D680120014602223346A8471E23F3
:1010C00063617DE1514B1B681F6804F11A05022022
:1010D0006168227C2B46B84730B94D49A27E00F0AA
:1010E00043FE142363616BE1012815D100204649BA
:1010F0001F2200F039FE424B1B685E6801230093FB
:101100000193089804F1180104F119022B46B04725
:101110004FF47A73636153E13A4B1B681F680120F7
:10112000014602223346B847002800F049810020DA
:101130003549202200F018FE314B1B685E68012300
:1011400000930193089804F1180104F119022B4649
:10115000B0474FF47A73636132E100202D49642275
:1011600000F002FE294B1B685D6800206168227C4C
:10117000A37EA8477823636122E1E37E012B16D189
:10118000254D00202946782200F0EEFD002029465A
:10119000792200F0E9FD1D4B1B685D680120616844
:1011A000227C04F11A03A847A023636101E096237F
:1011B0006361144B1B681C680120014602463346DC
:1011C000A047FDE0114B1B685F6804F11A0502207F
:1011D0006168227C2B46B84710BB1049A27E00F004
:1011E000C3FDE37E5A1EE276C3F10403A27E2344CC
:1011F0001A7778236361E3E0084500206846002001
:10120000544500203C460020782002004C46002037
:101210008020020088200200F41F020090200200BB
:10122000694B1B681F680020012102223346B84722
:10123000002800F0C580654B1B685E6801230093A1
:101240000193089804F1180104F119022B46B047E4
:101250004FF47A736361B3E05D4B1B685F6804F120
:101260001A0502206168227C2B46B847B0B959495B
:10127000A27E00F079FDE37E5A1EE276C3F10403FC
:10128000A27E23441A77504B1B681D68012001463B
:1012900002223346A847C823636191E04A4B1B688A
:1012A0001F680020012102223346B847002800F0C1
:1012B0008780464B1B685E68012300930193089862
:1012C00004F1180104F119022B46B0474FF47A7368
:1012D000636175E03D4B1B689D68227E042300938B
:1012E000002301930998394604F11C03A8470028FC
:1012F00066D1DC23636163E0354B1B685F6804F1F2
:101300001A0502206168227C2B46B847022807D1C3
:1013100000203149DC2200F027FDE62363614FE025
:10132000294B1B681F680020012102223346B84761
:10133000002845D0254B1B685E680123009301936C
:10134000089804F1180104F119022B46B0474FF434
:101350007A73636134E0F023636131E01A4B1B68F8
:101360001D680120014602463346A847FA236361FF
:1013700026E0154B1B681D68002001210A463346F4
:10138000A847E8B100201449FA2200F0EDFC002340
:10139000636115E02346FF2203F81C2F0B4A1268F5
:1013A0009568227E0121009100210191099839461A
:1013B000A84728B96061084940F24C4200F0D4FCCB
:1013C00002B0BDE8F08100BF3C460020544500203B
:1013D0004C46002090200200F41F020010B40B4C79
:1013E00004600B4C44600B48019C04600A48026096
:1013F0000A4A13600A4B19600A4B029A1A600A4B98
:10140000039A1A605DF8044B704700BF3D0F02005D
:10141000890D0200E04400203C460020B845002031
:101420004C4600200845002054450020BFF34F8F54
:101430000449CA6802F4E062034B1343CB60BFF374
:101440004F8FFEE700ED00E00400FA05174B1B7814
:10145000062B1FD1164B1B6813F00F0F1CD1154B19
:101460001B6803F0F003302B04D1134A126812F00A
:10147000F00F13D0402B04D10F4A126812F0F00F76
:101480000ED0502B0ED10C4B1B6813F0F00F0BD06D
:1014900000207047002070470020704701207047EF
:1014A000012070470020704701207047E00F00F0D6
:1014B000E40F00F0E80F00F0EC0F00F00E4B1B788B
:1014C000062B11D10D4B1B6813F00F0F0ED10C4BD7
:1014D0001B6803F0F003302B0AD10A4B1B6813F092
:1014E000F00F07D0002070470020704700207047A1
:1014F0000020704701207047E00F00F0E40F00F07B
:10150000E80F00F0EC0F00F0174B1B78062B1FD1F3
:10151000164B1B6813F00F0F1CD1154B1B6803F003
:10152000F003302B04D1134A126812F0F00F13D0DD
:10153000402B04D10F4A126812F0F00F0ED0502B3E
:101540000ED10C4B1B6813F0F00F0BD0002070472E
:10155000002070470020704701207047012070472D
:101560000020704701207047E00F00F0E40F00F00A
:10157000E80F00F0EC0F00F00E4B1B78062B11D19A
:101580000D4B1B6813F00F0F0ED10C4B1B6803F0B3
:10159000F003302B0AD10A4B1B6813F0F00F07D071
:1015A00000207047002070470020704700207047DF
:1015B00001207047E00F00F0E40F00F0E80F00F0AA
:1015C000EC0F00F00E4B1B78062B11D10D4B1B6856
:1015D00013F00F0F0ED10C4B1B6803F0F003502BD0
:1015E0000AD10A4B1B6813F0F00F07D00020704798
:1015F000002070470020704700207047012070478E
:10160000E00F00F0E40F00F0E80F00F0EC0F00F046
:10161000014A024B1A6070470090D003183F002027
:1016200008B5FFF713FF28B16A4B1B68C3F34233B9
:10163000694A1360FFF742FF20B1684AD36823F07C
:101640008073D360FFF760FF40B14FF0804300220A
:10165000C3F80C21C3F81021C3F83825FFF78CFF1D
:1016600010B103225E4B1A60FFF7ACFF002846D092
:101670004FF08052D2F804145A4BC3F82015D2F818
:101680000814C3F82415D2F80C14C3F82815D2F89E
:101690001014C3F82C15D2F81414C3F83015D2F86E
:1016A0001814C3F83415D2F81C14C3F84015D2F836
:1016B0002014C3F84415D2F82414C3F84815D2F8FE
:1016C0002814C3F84C15D2F82C14C3F85015D2F8CE
:1016D0003014C3F85415D2F83414C3F86015D2F896
:1016E0003814C3F86415D2F83C14C3F86815D2F85E
:1016F0004014C3F86C15D2F84424C3F870253A4A54
:10170000D2F8883043F47003C2F88830BFF34F8FAB
:10171000BFF36F8F4FF01023D3F80C3213F0010F8B
:1017200020D00122314BC3F80425304BD3F80034CC
:10173000002BFAD04FF01022D2F80C3223F0010324
:10174000C2F80C32294BD3F80034002BFAD0002217
:10175000264BC3F80425254BD3F80034002BFAD0D0
:10176000FFF764FE4FF01023D3F80032002B05DBA7
:101770004FF01023D3F80032002B27DA01221B4B45
:10178000C3F80425194BD3F80034002BFAD01522E6
:101790004FF01023C3F80022144BD3F80034002B71
:1017A000FAD015224FF01023C3F804220F4BD3F8C0
:1017B0000034002BFAD000220C4BC3F804250B4B4D
:1017C000D3F80034002BFAD0FFF730FEFFF720FFEC
:1017D00008BD00BF440200103C050040F0ED00E0F1
:1017E000A005004000C0004000ED00E000E0014026
:1017F0000369C268934204D88068801A0344581E63
:1018000070479B1A581E70472DE9F04106468846DE
:101810001446C7688568ED1B954207D9406838446F
:1018200000F0E4FA3C44F460BDE8F08140683844DC
:101830002A4600F0DBFA641B706808EB05012246BB
:1018400000F0D4FAF460BDE8F08100BF2DE9F84360
:10185000064688461746C5684FF000093369AB4213
:1018600002D95B1B013B03E0B4685B1B2344013BD3
:10187000B468641B9C4228BF1C46BC4228BF3C463F
:10188000706828444146224600F0B0FAA144A044C2
:101890003F1B2544B368AB4200D10025F560002F03
:1018A000DCD14846BDE8F88310B5114C0223236112
:1018B0006361104AA261104BE3614FF480632362BD
:1018C0000023A3626362E362A2640C4AE264102212
:1018D0002265A3656365E365E01D094900F03CFBF3
:1018E0002046084900F038FB2023A37110BD00BF3B
:1018F0008447002098200200284000201840002043
:10190000A4200200A820020070B50E461546431C14
:1019100003EB4303DB00174A9C1800EB4000C000B8
:101920001044C36A012B0ED013B1022B17D01CE058
:101930002046FFF75DFFA84219D3204631462A46CC
:10194000FFF762FF14E02046FFF752FF854228BFF1
:101950000546204631462A46FFF756FF08E0204656
:101960002A46FFF773FF054602E0002500E0002548
:10197000284670BD8447002070B582B006460D46EB
:1019800014460B4B1B780BB9FFF78EFFEFF3118357
:101990004FF0800181F31188019330462946224699
:1019A000FFF7B2FF019B83F3118802B070BD00BF47
:1019B0008447002010B504468268531C4068834267
:1019C00005D820688154A360E3680133E360A2680E
:1019D00063689A420CD120692168FFF7CDFFA368A4
:1019E000984203D04FF0FF33E36010BD0023A360A3
:1019F00010BD00BF2DE9F84F80460F4616461D4624
:101A0000DDF828A00B9A0B464FF0010903E0B3FB69
:101A1000F6F309F10109B342F9D24D4500D9A946BF
:101A200012F0010B1BD1BAF1000F18D012F0020F07
:101A30000DD075B120240DE00AF1FF3A4046214651
:101A4000FFF7B8FFD8F80C30002B03DA07E02024AA
:101A500000E03024BAF1000F01D0D145ECD3D8F822
:101A60000C30002B33DB0124012D01D9013D03E0B3
:101A7000B7FBF4F3B34202D306FB04F4F4E7B7FB7D
:101A8000F4F304FB13774046124AD15CFFF792FF50
:101A9000D8F80C30002B03DBB4FBF6F4002CEED1AD
:101AA000BBF1000F13D0BAF1000F0BD1BDE8F88FD6
:101AB0000AF1FF3A40462021FFF77CFFD8F80C30AE
:101AC000002B04DBBAF1000F01D0D145F0D3BDE803
:101AD000F88F00BFB02002002DE9F04782B0074622
:101AE000894615469A460A9EDDF82C8081EAE17304
:101AF000A3EBE173012402E093FBF5F301349D4273
:101B0000FADDA24500D9544636B1B9F1000F02DB27
:101B100018F0040F00D0013E18F0020F02D0BAF105
:101B2000000F0FD018F0010F0CD146B90AE0013EAA
:101B300038462021FFF73EFFFB68002B02DB0EB189
:101B4000B442F4D3FB68002B33DBB9F1000F06DAA3
:101B5000C9F1000938462D21FFF72CFF06E018F0E7
:101B6000040F03D038462B21FFF724FFFB68002B1E
:101B70001FDB08F00303022B0FD1BAF1000F0CD1C9
:101B800046B90AE0013E38463021FFF713FFFB68F3
:101B9000002B02DB0EB1B442F4D3FB68002B08DB50
:101BA0000096CDF80480384649462A465346FFF74A
:101BB00021FF02B0BDE8F087F0B599B006460C46AB
:101BC000154603AB139340231493002315931790EA
:101BD000169314F8011B002900F0B580252940F068
:101BE000AB80002701222378233B0D2B18D8DFE898
:101BF00003F013171717171717170F170717170BD8
:101C000047F0010701340CE047F00207013408E017
:101C100047F00407013404E047F00807013400E00E
:101C20000022002ADFD100202378A3F13002D2B2B3
:101C3000092A07D8013400EB800252001344A3F1B3
:101C40003000F1E72E2B0FD1013400232278A2F1CE
:101C50003001C9B2092908D8013403EB83035B00C2
:101C60001A44A2F13003F1E7002322786C2A01D054
:101C7000682A02D114F8012BF8E7642A1AD006D892
:101C8000582A2DD0632A0DD0252A53D14EE0732A2D
:101C900031D002D8702A3CD04CE0752A15D0782A71
:101CA0001ED047E02B681A1D2A6013A81978FFF789
:101CB00081FE3FE02A68111D29601168009001979C
:101CC00013A80A22FFF708FF34E02A68111D2960D3
:101CD00011680090019713A80A22FFF78BFE29E0F4
:101CE0002A68111D296011680090019713A810221D
:101CF000FFF780FE1EE02B681A1D2A601F6817F888
:101D0000011BB9B113A8FFF755FE169B002BF6DA9D
:101D100010E02B681A1D2A6019680823009300221E
:101D2000019213A81022FFF765FE03E013A82521F6
:101D3000FFF740FE013402E013A8FFF73BFE169BBD
:101D4000002BBFF646AF169B002B09DD159A1AB182
:101D5000304603A9FFF710FE169A159B13441693FD
:101D6000169819B0F0BD00BF0EB400B582B003AB39
:101D700053F8041B02AA42F8043DFFF71DFF02B00E
:101D80005DF804EB03B070470649074A074B9B1AFE
:101D900003DD043BC858D050FBDC054880470548AC
:101DA00000470000C8200200B03D0020243F002072
